:020000040000FA
:100000000A128A11EE2FFF1B0D2883137F18831706
:100010000008840A0319FF0A080000308A00040857
:10002000840A8207003454346534723474346F3473
:1000300073342034703472346F346A34653463340A
:0400400074340034E0
:100BC000831603178901F0308316031386008312FE
:100BD000031386010800F5007508F40006300310C1
:100BE000F40DFF3E031DEF2D730874077F39803E1F
:100BF0000A128A116E270A128A1108007E088A00DA
:100C00007F0882000A128A11FE250A128A118000CA
:100C1000840A04087D0603190034FF0A0319FE0A3A
:100C2000022E3134323433344134343435343634B2
:100C3000423437343834393443342A34303423346A
:100C400044345434653463346C3461343A3420347D
:100C50002034203420342034203420342034003414
:100C600083160313081188110812881208138813B9
:100C700083120313881528300A128A116E270A126C
:100C80008A110C300A128A116E270A128A11013059
:100C90000A128A116E270A128A1102300A128A1168
:100CA0006E270A128A110800F20083120313081536
:100CB0007208F00004300310F00CFF3E031D5B2EA1
:100CC0007008F100F10E080871060F3971068800EE
:100CD00088110D30F000F00B6B2E83120313881572
:100CE000081572080F39F000F00E080870060F3969
:100CF0007006880088110D30F000F00B7D2E8312F5
:100D0000031388150800FB007608F9007908FA003B
:100D10007608F9007908F3007B080A128A11EB259E
:100D20000A128A11AC2E780883120313FF00770889
:100D300084000A128A1103200A128A110A128A11E7
:100D400054260A128A110130F7070318F80A0130F5
:100D5000F9007908FA07AC2E780883120313FF0014
:100D6000770884000A128A1103200A128A11003AB5
:100D7000031DBB2EBC2E932EBD2E080043308400D5
:100D8000303083120313BF000408C0000F30C100CD
:100D90003F08840083130008C200BF0A4008840093
:100DA00042088000C00AC10BC82E0A128A113026E0
:100DB0000A128A110A128A11E0250A128A11E02EFB
:100DC0000A128A1110270A128A1183120313BF0014
:100DD0003F08CA004A08031DEE2EEF2EF42E2030E5
:100DE000BF003F08CA00F42EF6014330F700003080
:100DF000F80001300A128A1183260A128A11F601BC
:100E0000F60A0130F7008030F80000300A128A112B
:100E100083260A128A11E02EE02E0A128A11002877
:100E2000F401F60104307602031C172F182F1A2F35
:100E30006B2F6B2F0130F000760A202F0310F00D7E
:100E4000FF3E031D1E2F7008831203138600F50159
:100E500004307502031C2D2F2E2F302F602F602F92
:100E60001030F000750A362F0310F00DFF3E031D01
:100E7000342F7008060503193E2F3F2F552F760893
:100E8000F00002300310F00DFF3E031D422F203012
:100E90007007F10075087107F2007208840083136F
:100EA0000008F3007308F400552F0130F0007008BB
:100EB000F50704307502031C5E2F5F2F302F602F63
:100EC0000130F0007008F60704307602031C692F29
:100ED0006A2F1A2F6B2F74086D2F0800F2008312EF
:100EE000031308117208F00004300310F00CFF3EE9
:100EF000031D752F7008F100F10E080871060F39F7
:100F000071068800881172030319872F882F8F2F8D
:100F100002307206031D8D2F8E2F992F8F2F0330D5
:100F2000F1009730F000F00B932FF10B932F982FD7
:100F30009E2F0D30F000F00B9B2F9E2F831203137A
:100F40008815F0307205F00020307006031DA92FBF
:100F5000AA2FC42F08117208F00004300310F00CFF
:100F6000FF3E031DAE2F7008F100F10E0808710658
:100F70000F397106880088110D30F000F00BBE2F7C
:100F8000831203138815C42F081172080F39F0005B
:100F9000F00E080870060F39700688008811720379
:100FA0000319D32FD42FDB2F02307206031DD92F44
:100FB000DA2FE52FDB2F0330F1009730F000F00B34
:100FC000DF2FF10BDF2FE42FEA2F0D30F000F00BB5
:100FD000E72FEA2F831203138815080083133F308D
:100FE000FD000630FE001130FF00203084000A12A0
:100FF0008A1102260A128A1183010A128A11BE2E50
:04400E00D4E0FFFFFC
:00000001FF
