:020000040000FA
:100000000A128A11EE2FFF1B0D2883137F18831706
:100010000008840A0319FF0A080000308A00040857
:10002000840A8207003454346534723474346F3473
:1000300073342034703472346F346A34653463340A
:0400400074340034E0
:100BC800831603178901F0308316031386008312F6
:100BD800031386010800F5007508F40006300310B9
:100BE800F40DFF3E031DF32D730874077F39803E13
:100BF8000A128A116E270A128A1108007E088A00D2
:100C08007F0882000A128A1102260A128A118000BD
:100C1800840A04087D0603190034FF0A0319FE0A32
:100C2800062E5434653463346C3461343A342034D9
:100C3800203420342034203420342034203400342C
:100C48003134323433344134343435343634423444
:100C580083160313081188110812881208138813C1
:100C680083120313881528300A128A116E270A1274
:100C78008A110C300A128A116E270A128A11013061
:100C88000A128A116E270A128A1102300A128A1170
:100C98006E270A128A110800F2008312031308153E
:100CA8007208F00004300310F00CFF3E031D572EAD
:100CB8007008F100F10E080871060F3971068800F6
:100CC80088110D30F000F00B672E8312031388157E
:100CD800081572080F39F000F00E080870060F3971
:100CE8007006880088110D30F000F00B792E831201
:100CF800031388150800FB007608F9007908FA0044
:100D08007608F9007908F3007B080A128A11EF25A2
:100D18000A128A11A82E780883120313FF00770895
:100D280084000A128A1103200A128A110A128A11EF
:100D380050260A128A110130F7070318F80A013001
:100D4800F9007908FA07A82E780883120313FF0020
:100D5800770884000A128A1103200A128A11003ABD
:100D6800031DB72EB82E8F2EB92E08003B308400F5
:100D7800203083120313B7000408B8000F30B900FD
:100D88003708840083130008BA00B70A38088400BB
:100D98003A088000B80AB90BC42E0A128A112C2608
:100DA8000A128A110A128A11E4250A128A11DC2E03
:100DB8000A128A110C270A128A1183120313B70028
:100DC8003708C2004208031DEA2EEB2EF02E203011
:100DD800B7003708C200F02EF6013B30F7000030AC
:100DE800F80001300A128A117F260A128A11F601C8
:100DF800F60A0130F7008030F80000300A128A1134
:100E08007F260A128A11DC2EDC2E0A128A1100288B
:100E1800F1010130831203138600F20104307202DB
:100E2800031C172F182F1A2F3D2F3D2F1030F000BD
:100E3800720A202F0310F00DFF3E031D1E2F7008AD
:100E480006050319282F292F322F72082F3E8400F8
:100E580083130008F0007008F100322F0130F00011
:100E68007008F20704307202031C3B2F3C2F1A2F24
:100E78003D2F02308600F20104307202031C452F18
:100E8800462F482F6B2F6B2F1030F000720A4E2F11
:100E98000310F00DFF3E031D4C2F700806050319C3
:100EA800562F572F602F7208333E84008313000893
:100EB800F0007008F100602F0130F0007008F207B0
:100EC80004307202031C692F6A2F482F6B2F710898
:100ED8006D2F0800F2008312031308117208F00046
:100EE80004300310F00CFF3E031D752F7008F1004D
:100EF800F10E080871060F3971068800881172030F
:100F08000319872F882F8F2F02307206031D8D2F0C
:100F18008E2F992F8F2F0330F1009730F000F00BB0
:100F2800932FF10B932F982F9E2F0D30F000F00B7D
:100F38009B2F9E2F831203138815F0307205F00043
:100F480020307006031DA92FAA2FC42F081172087C
:100F5800F00004300310F00CFF3E031DAE2F7008A4
:100F6800F100F10E080871060F3971068800881122
:100F78000D30F000F00BBE2F831203138815C42F19
:100F8800081172080F39F000F00E080870060F39C2
:100F980070068800881172030319D32FD42FDB2F12
:100FA80002307206031DD92FDA2FE52FDB2F03300D
:100FB800F1009730F000F00BDF2FF10BDF2FE42F5B
:100FC800EA2F0D30F000F00BE72FEA2F83120313FE
:100FD8008815080083133730FD000630FE001530F1
:100FE800FF00203084000A128A1106260A128A118C
:080FF80083010A128A11BA2ECE
:04400E00D4E0FFFFFC
:00000001FF
